:100000000C9434000C9451000C9451000C94510049
:100010000C9451000C9451000C9451000C9451001C
:100020000C9451000C9450050C9451000C94510008
:100030000C9451000C9451000C9451000C945100FC
:100040000C9451000C9451000C948D040C94C50434
:100050000C9451000C9451000C9451000C945100DC
:100060000C9451000C94510011241FBECFEFD8E026
:10007000DEBFCDBF11E0A0E0B1E0E4EFFCE002C0E4
:1000800005900D92A030B107D9F711E0A0E0B1E0E2
:1000900001C01D92A631B107E1F70E9453000C94F4
:1000A00078060C940000DF93CF930F92CDB7DEB7A4
:1000B00080E00E949A0084EF91E00E949B0581E01D
:1000C0000E949A0084EF91E00E949B0580E00E94CC
:1000D0009A0084EF91E00E949B0581E00E949A00C3
:1000E00084EF91E00E949B0580E00E949A0084EFDB
:1000F00091E00E949B0580E00E94BD0360E072ECED
:1001000081E090E00E94EC031982CE01019661E04B
:1001100044E650E00E944D058823B9F78981882F75
:1001200090E00E9497028981882F90E061E00E9410
:100130000403EBCFDF93CF930F92CDB7DEB7898364
:1001400081E069810E94A8000F90CF91DF9108950E
:10015000DF93CF93CDB7DEB729970FB6F894DEBF04
:100160000FBECDBF88876987CE01019668850E9442
:10017000CC00CE01019669850E945B01CE010196FB
:1001800061E00E94A10129960FB6F894DEBF0FBE70
:10019000CDBFCF91DF910895DF93CF9300D00F9221
:1001A000CDB7DEB79A8389836B83E981FA811182A7
:1001B0001082E981FA8113821282E981FA81158223
:1001C0001482E981FA8116828B81883008F5E981F1
:1001D000FA8189E290E091838083E981FA818BE260
:1001E00090E093838283E981FA818AE290E09583AB
:1001F00084838B81282F30E081E090E0022E02C0C2
:10020000880F991F0A94E2F7E981FA8186834DC02D
:100210008B818E3020F5E981FA8183E290E0918331
:100220008083E981FA8185E290E093838283E9818A
:10023000FA8184E290E0958384838B81882F90E01B
:100240009C012850304081E090E0022E02C0880FCF
:10025000991F0A94E2F7E981FA81868326C08B818F
:10026000853118F5E981FA8186E290E091838083F7
:10027000E981FA8188E290E093838283E981FA81BF
:1002800087E290E0958384838B81882F90E09C01A6
:100290002E50304081E090E0022E02C0880F991F5E
:1002A0000A94E2F7E981FA8186830F900F900F900C
:1002B000CF91DF910895DF93CF9300D00F92CDB708
:1002C000DEB79A8389836B838B818F3F81F4E981C9
:1002D000FA81A281B381E981FA810280F381E02D64
:1002E0009081E981FA81868189278C9324C08B8152
:1002F000882381F0E981FA81A281B381E981FA81C1
:100300000280F381E02D9081E981FA818681892B39
:100310008C9311C0E981FA81A281B381E981FA81CC
:100320000280F381E02D8081982FE981FA81868116
:10033000809589238C930F900F900F90CF91DF9130
:100340000895DF93CF9300D00F92CDB7DEB79A8395
:1003500089836B838B81882381F0E981FA81A48171
:10036000B581E981FA810480F581E02D9081E981F0
:10037000FA818681892B8C9311C0E981FA81A4814D
:10038000B581E981FA810480F581E02D8081982F83
:10039000E981FA818681809589238C930F900F9053
:1003A0000F90CF91DF910895282F883068F481E075
:1003B00090E002C0880F991F2A95E2F7282FAAE241
:1003C000B0E0EBE2F0E029C08E3080F430E028505D
:1003D000304081E090E002C0880F991F2A95E2F733
:1003E000282FA4E2B0E0E5E2F0E017C0853130F05C
:1003F00020E0A0E0B0E0E0E0F0E00FC030E02E5000
:10040000304081E090E002C0880F991F2A95E2F702
:10041000282FA7E2B0E0E8E2F0E06F3F19F4808116
:10042000822709C0662319F08081822B04C0908145
:10043000822F8095892380838C91822B8C930895C1
:1004400008950895E0EBF0E083EF8083808184BD20
:10045000E1EBF0E082E08083808185BDE4EBF0E0B9
:1004600010828081E3EBF0E08083808188BD88B5D5
:1004700087BD86E060E00E94D40185E060E00E94D4
:10048000D4018BE060E00E94D40183E060E00E9430
:10049000D401089580910001882329F481E080939C
:1004A00000010E9422020895CF93DF93EC010E9485
:1004B0004A02D7FD02C020E004C0D095C195DF4FAD
:1004C00021E0CE01CF3FD10519F014F08FEF90E07D
:1004D000222319F018BC87BD02C088BD17BCDF916C
:1004E000CF9108950E9454020895CF93DF93EC01B9
:1004F0000E944A02D7FD02C020E004C0D095C195F9
:10050000DF4F21E0CE01CF3FD10519F014F08FEF7E
:1005100090E0222329F01092B4008093B30004C02D
:100520008093B4001092B300DF91CF9108950E94A0
:10053000750208950F931F938B010E945402C80106
:100540000E9475021F910F9108950E949A020895CA
:100550008091010108952091C1002F772093C1005F
:1005600090930A01809309011092030160930501A1
:100570001092060180910101882329F48091C10025
:1005800080688093C10008952091C1002F77209347
:10059000C10090930A0180930901109203016093B6
:1005A000050181E08093060180910101882329F4EF
:1005B0008091C10080688093C10008958091C1003E
:1005C0008F778093C10010920A0110920901109256
:1005D0000301109205011092060180910101882308
:1005E00029F48091C10080688093C10008958091B2
:1005F000030108959091030120E08091050198176F
:1006000009F421E0822F0895909308018093070157
:100610001092020160930401892B61F08091020124
:10062000861740F480910101882321F48091C10054
:10063000806203C08091C1008F7D8093C1000895C6
:100640008091020108959091020120E080910401BF
:10065000981709F421E0822F08952091C1002F7787
:100660002093C10090930A01809309011092030125
:10067000609305011092060180910101882329F4FD
:100680008091C10080688093C10008952091C100CD
:100690002F772093C10090930A0180930901109253
:1006A00003016093050181E08093060180910101BF
:1006B000882329F48091C10080688093C100089547
:1006C0008091C1008F778093C10010920A0110922F
:1006D0000901109203011092050110920601809108
:1006E0000101882329F48091C10080688093C100B2
:1006F000089590930801809307011092020160937E
:100700000401892B61F080910201861740F48091E9
:100710000101882321F48091C100806203C080918F
:10072000C1008F7D8093C100089520910101222393
:1007300011F488E901C088E18093C100809107012C
:1007400090910801892B79F0909102018091040128
:10075000981748F4222339F48091C1008062809375
:10076000C100789408958091C1008F7DF8CF809367
:10077000010180E00E94950308950E94B703089547
:10078000EF92FF920F931F937B018C0180E00E94F8
:10079000950360EA75E286E290E06E197F09800BAE
:1007A000910B33E0660F771F881F991F3A95D1F799
:1007B00024E0EE0CFF1C001F111F2A95D1F7A801A1
:1007C00097010E9456063093C5002093C4001F91E4
:1007D0000F91FF90EF9008950E94C00308958091BB
:1007E000C1008F7D8093C100E0910701F091080165
:1007F000309709F45DC0809102019091040189173E
:1008000008F05AC08091C00085FF56C08091020157
:10081000E80FF11D80818093C600809102018F5FF7
:100820008093020149C080910101882309F040C0F2
:100830008091C10080628093C1008091C1008F7758
:100840008093C100E0910901F0910A01309731F1E4
:100850008091030190910501891700F58091C000F6
:1008600087FF1CC02091C60080910301891750F4B6
:1008700080910301E80FF11D2083809103018F5FB8
:10088000809303019091030180910501981731F441
:1008900080910601882311F01092030180910101DB
:1008A000882379F48091C10080688093C100089505
:1008B0008091C1008F7DBFCF809102018917C0F761
:1008C000B2CF08950E94EF0308959093080180939A
:1008D00007011092020160930401892BA9F0809115
:1008E0000201861788F480910101882369F48091C0
:1008F000C10080620CC00E94EF03909102018091C0
:1009000004019817C1F708958091C1008F7D8093ED
:10091000C100F3CF0E94650408951F920F920FB695
:100920000F9211242F938F939F93EF93FF93209116
:10093000C600E0910901F0910A01309781F0909191
:10094000030180910501981750F480910301E80F8D
:10095000F11D2083809103018F5F809303019091AB
:10096000030180910501981731F4809106018823D5
:1009700011F010920301FF91EF919F918F912F91B0
:100980000F900FBE0F901F9018951F920F920FB6E9
:100990000F9211248F939F93EF93FF93E0910701A0
:1009A000F09108013097F9F08091020190910401D3
:1009B000891738F58091C00085FF23C0809102011E
:1009C000E80FF11D80818093C600809102018F5F46
:1009D0008093020116C080910101882321F4809147
:1009E000C100806203C08091C1008F7D8093C100EF
:1009F000FF91EF919F918F910F900FBE0F901F90DD
:100A0000189580910201891770F7E5CFAF92BF92D8
:100A1000CF92DF92EF92FF920F931F938A01209162
:100A2000C1002F772093C10090930A0180930901A0
:100A3000109203016093050110920601809101015B
:100A4000882329F48091C10080688093C1000E94AE
:100A5000EC055B016C01780100E010E00E94EF03FF
:100A60009091030180910501981711F480E00CC06A
:100A70000E94EC056A197B098C099D096E157F059A
:100A80008007910758F381E01F910F91FF90EF903D
:100A9000DF90CF90BF90AF9008950E940605089513
:100AA0002F928F939F932FB680910C0190910D01FF
:100AB000019680930C0190930D0190E080910E01BE
:100AC000891F80930E01909114019C5F90931401F3
:100AD0008091130180519742C0F09093140180934C
:100AE000130180910F0190911001019680930F01E5
:100AF0009093100190E080911101891F8093110162
:100B000080911201891F809312012FBE9F918F91B6
:100B10002F9018956F5F7F4F8F4F9F4F660F771FF6
:100B2000881F991F25E030E040E050E00E94560603
:100B3000CA01B901089528EE33E009C0F9016F93A5
:100B400064E06A95F1F76F913197C9F701970097C3
:100B5000A9F708956F5F7F4F8F4F9F4F660F771FE5
:100B6000881F991F25E030E040E050E00E945606C3
:100B7000CA01B901089528EE33E009C0F9016F9365
:100B800064E06A95F1F76F913197C9F70197009783
:100B9000A9F70895A0E7B0E08C918E7F8C93E0EBED
:100BA000F0E0808183608083E1EBF0E08081807FF2
:100BB0008083808182608083B89A8C9181608C93DD
:100BC0007894089580911501882329F481E0809319
:100BD00015010E94CA0508950E94E205E0E7F0E0D1
:100BE00080818E7F808320910F0130911001409190
:100BF000110150911201808181608083B901CA0185
:100C000008950E94EC0508950E94E205809170000D
:100C10008E7F809370006091B20080910B01909163
:100C20000C01A0910D01B0910E01B89905C0262FBD
:100C300030E040E050E011C08091B20020910B0103
:100C400030910C0140910D0150910E0120503F4F09
:100C50004F4F5F4F90E0A0E0B0E0282B392B4A2B9C
:100C60005B2B80917000816080937000B901CA0194
:100C700008950E94040608950E94E205E0E7F0E06E
:100C800080818E7F808310920F011092100110924C
:100C9000110110921201109214011092130180811F
:100CA0008160808308950E943C060895A1E21A2E77
:100CB000AA1BBB1BFD010DC0AA1FBB1FEE1FFF1F00
:100CC000A217B307E407F50720F0A21BB30BE40B50
:100CD000F50B661F771F881F991F1A9469F7609597
:100CE0007095809590959B01AC01BD01CF01089551
:040CF000F894FFCFA6
:00000001FF
